:020000040800F2
:100000006815002029020008650200086702000840
:10001000690200086B0200086D0200080000000081
:100020000000000000000000000000006F02000857
:100030007102000800000000730200087502000849
:1000400077020008770200087702000877020008AC
:10005000770200087702000877020008770200089C
:10006000770200087702000877020008770200088C
:10007000770200087702000877020008770200087C
:10008000770200087702000877020008770200086C
:10009000770200087702000877020008770200085C
:1000A000770200087702000877020008770200084C
:1000B000770200087702000877020008770200083C
:1000C000770200087702000877020008770200082C
:1000D000770200087702000877020008770200081C
:1000E000770200087702000877020008770200080C
:1000F00077020008770200087702000877020008FC
:1001000077020008770200087702000877020008EB
:1001100077020008770200087702000877020008DB
:1001200077020008770200087702000877020008CB
:1001300077020008770200087702000877020008BB
:1001400077020008770200087702000877020008AB
:10015000770200087702000877020008770200089B
:10016000770200087702000877020008770200088B
:1001700077020008770200087702000800000000FC
:10018000770200087702000800F002F800F03CF85F
:100190000AA090E8000C82448344AAF10107DA45E2
:1001A00001D100F031F8AFF2090EBAE80F0013F0F8
:1001B000010F18BFFB1A43F0010318479004000019
:1001C000B0040000103A24BF78C878C1FAD85207AA
:1001D00024BF30C830C144BF04680C6070470000C1
:1001E0000023002400250026103A28BF78C1FBD840
:1001F000520728BF30C148BF0B6070471FB500F0E1
:100200001FFA1FBD10B510BD00F053F81146FFF7DF
:10021000F5FF00F0E5F800F071F803B4FFF7F2FF26
:1002200003BC00F079F8000016481749174B9942B3
:100230003CBF50F8042B41F8042BF8D314494FF07D
:1002400000028B4238BF43F8042BFAD3DFF8440096
:10025000016841F470010160BFF34F8FBFF36F8FEE
:100260000D480047FEE7FEE7FEE7FEE7FEE7FEE794
:10027000FEE7FEE7FEE7FEE708480949094A0A4BA0
:10028000704700006C0600080000002004000020F9
:100290006815002088ED00E0890100086800002052
:1002A0006815002068050020680500207047704729
:1002B0007047754600F02CF8AE4605006946534677
:1002C00020F00700854618B020B5FFF7D5FFBDE840
:1002D00020404FF000064FF000074FF000084FF0AD
:1002E000000B21F00701AC46ACE8C009ACE8C0093E
:1002F000ACE8C009ACE8C0098D46704710B50446AB
:10030000AFF300802046BDE81040FFF786BF000035
:10031000004870470400002001491820ABBEFEE7EA
:10032000260002007047000000201249486112496F
:10033000086004E010480068401C0F4908600E483F
:1003400000680E498842F5DB4FF480700949486126
:1003500000200949086004E007480068401C06497D
:1003600008600548006806498842F5DB002001491D
:10037000486170470010004800000020A08601007E
:10038000801A06000020124948611249086004E002
:1003900010480068401C0F4908600E4800680E496C
:1003A0008842F5DB4FF48070094948610020094913
:1003B000086004E007480068401C064908600548DA
:1003C000006806498842F5DB002001494861704712
:1003D0000010004800000020A0860100400D03002E
:1003E0009248006840F480709049086000BF8F48D0
:1003F000006800F480600028F9D08C48806820F004
:1004000003008A4988600846806840F001008860DF
:1004100000BF8648806800F00C000028F9D08348AF
:10042000C06C40F002008149C8648148006820F037
:1004300030007F4908600846006840F010000860FE
:100440007B480830006820F03000794908310860A6
:100450000846006840F020000860081F006820F08F
:100460000400091F086072480C30006820F030005A
:100470006F490C3108606E481430006840F0040089
:100480006B49143108606948C06C40F0100067493E
:10049000C8646848006820F440306649086008462F
:1004A000006840F4803008600846806820F44030DE
:1004B00088600846806840F40030886008464068DC
:1004C00020F4807048600846C06820F44030C8605E
:1004D0000846406940F4807048615448C06C40F060
:1004E00001005249C8644FF09040006840F6FF4157
:1004F00088434FF0904108600846C06840F6FF41CD
:1005000088434FF09041C8600846C06840F6AA0191
:1005100008434FF09041C86087E04FF09040006979
:1005200000F0010078B142481430006880F0040007
:100530003F491431086000BF4FF09040006900F05F
:1005400001000028F8D14FF09040006900F002004F
:1005500002280DD13748406980F4807035494861E0
:1005600000BF4FF09040006900F002000028F8D171
:100570004FF09040006900F00400042815D12D4888
:10058000406980F480702B49486129481430006824
:1005900080F0040026491431086000BF4FF09040FD
:1005A000006900F004000028F8D14FF09040006985
:1005B00000F0080008280DD100201E4948611C49A0
:1005C0001431086000BF4FF09040006900F008004F
:1005D0000028F8D14FF09040006900F0200020285A
:1005E00023D10020134948611349086004E01248F0
:1005F0000068401C104908600F4800680F49884295
:10060000F5DBFFF7BFFEFFF7BDFEFFF7BBFEFFF711
:100610008BFEFFF789FEFFF787FEFFF7B3FEFFF7BC
:10062000B1FEFFF7AFFEFFF7ADFE76E70010024028
:1006300000040048001000480000002040420F0065
:100640004FF04070E1EE100A704700006C060008A1
:100650000000002004000000C4010008700600082B
:100660000400002064150000E00100080000000004
:040000050800018965
:00000001FF
